{
  "contractName": "CoinFlip",
  "abi": [
    {
      "inputs": [],
      "stateMutability": "nonpayable",
      "type": "constructor"
    },
    {
      "anonymous": false,
      "inputs": [
        {
          "indexed": true,
          "internalType": "address",
          "name": "player",
          "type": "address"
        },
        {
          "indexed": false,
          "internalType": "uint256",
          "name": "betAmount",
          "type": "uint256"
        },
        {
          "indexed": false,
          "internalType": "bool",
          "name": "betOnHeads",
          "type": "bool"
        }
      ],
      "name": "BetPlaced",
      "type": "event"
    },
    {
      "anonymous": false,
      "inputs": [
        {
          "indexed": true,
          "internalType": "address",
          "name": "player",
          "type": "address"
        },
        {
          "indexed": false,
          "internalType": "uint256",
          "name": "betAmount",
          "type": "uint256"
        },
        {
          "indexed": false,
          "internalType": "bool",
          "name": "betOnHeads",
          "type": "bool"
        },
        {
          "indexed": false,
          "internalType": "bool",
          "name": "won",
          "type": "bool"
        }
      ],
      "name": "CoinFlipped",
      "type": "event"
    },
    {
      "inputs": [],
      "name": "owner",
      "outputs": [
        {
          "internalType": "address",
          "name": "",
          "type": "address"
        }
      ],
      "stateMutability": "view",
      "type": "function",
      "constant": true
    },
    {
      "stateMutability": "payable",
      "type": "receive",
      "payable": true
    },
    {
      "inputs": [
        {
          "internalType": "uint256",
          "name": "amount",
          "type": "uint256"
        }
      ],
      "name": "sendEtherToContract",
      "outputs": [],
      "stateMutability": "payable",
      "type": "function",
      "payable": true
    },
    {
      "inputs": [
        {
          "internalType": "bool",
          "name": "betOnHeads",
          "type": "bool"
        }
      ],
      "name": "placeBet",
      "outputs": [],
      "stateMutability": "payable",
      "type": "function",
      "payable": true
    },
    {
      "inputs": [
        {
          "internalType": "uint256",
          "name": "amount",
          "type": "uint256"
        }
      ],
      "name": "withdraw",
      "outputs": [],
      "stateMutability": "nonpayable",
      "type": "function"
    }
  ],
  "bytecode": "0x608060405234801561001057600080fd5b50600080546001600160a01b03191633179055610543806100326000396000f3fe6080604052600436106100435760003560e01c8063096a37781461004f5780632e1a7d4d146100645780636945e271146100845780638da5cb5b146100975761004a565b3661004a57005b600080fd5b61006261005d366004610329565b6100c2565b005b34801561007057600080fd5b5061006261007f366004610350565b61024f565b610062610092366004610350565b6102d6565b3480156100a357600080fd5b506100ac6102d9565b6040516100b99190610390565b60405180910390f35b34600081116100ec5760405162461bcd60e51b81526004016100e390610455565b60405180910390fd5b346100f88160026104c2565b4710156101175760405162461bcd60e51b81526004016100e3906103a4565b60006101216102e8565b60ff166001149050336001600160a01b03167ff8e99859e696debf4ef1752d671f759f7f63a1116efe995d789edfb3849c3549348660405161016492919061049a565b60405180910390a283151581151514156102025760006101853460026104c2565b604051909150339082156108fc029083906000818181858888f193505050501580156101b5573d6000803e3d6000fd5b50336001600160a01b03167f41115ffb7788074ab433d2988ea8968a7ef3c7e7531363d7b96b98b08b9537fb348760016040516101f4939291906104aa565b60405180910390a250610249565b336001600160a01b03167f41115ffb7788074ab433d2988ea8968a7ef3c7e7531363d7b96b98b08b9537fb34866000604051610240939291906104aa565b60405180910390a25b50505050565b6000546001600160a01b031633146102795760405162461bcd60e51b81526004016100e39061041e565b478111156102995760405162461bcd60e51b81526004016100e3906103e9565b600080546040516001600160a01b039091169183156108fc02918491818181858888f193505050501580156102d2573d6000803e3d6000fd5b5050565b50565b6000546001600160a01b031681565b6000600242443360405160200161030193929190610368565b6040516020818303038152906040528051906020012060001c61032491906104ed565b905090565b60006020828403121561033a578081fd5b81358015158114610349578182fd5b9392505050565b600060208284031215610361578081fd5b5035919050565b928352602083019190915260601b6bffffffffffffffffffffffff1916604082015260540190565b6001600160a01b0391909116815260200190565b60208082526025908201527f436f6e747261637420646f65736e2774206861766520656e6f7567682062616c60408201526430b731b29760d91b606082015260800190565b6020808252818101527f416d6f756e74206578636565647320636f6e74726163742062616c616e63652e604082015260600190565b6020808252601c908201527f4f6e6c7920746865206f776e65722063616e2077697468647261772e00000000604082015260600190565b60208082526025908201527f42657420616d6f756e74206d7573742062652067726561746572207468616e206040820152643d32b9379760d91b606082015260800190565b9182521515602082015260400190565b92835290151560208301521515604082015260600190565b60008160001904831182151516156104e857634e487b7160e01b81526011600452602481fd5b500290565b60008261050857634e487b7160e01b81526012600452602481fd5b50069056fea2646970667358221220635761177ef8206f6059f154ec7606f2392a1b40cf6477856e68e4bdb740a0d364736f6c63430008000033",
  "immutableReferences": {},
  "source": "// SPDX-License-Identifier: MIT\r\npragma solidity >=0.7.0 <0.9.0;\r\n\r\ncontract CoinFlip {\r\n    address public owner;\r\n\r\n    event BetPlaced(address indexed player, uint256 betAmount, bool betOnHeads);\r\n    event CoinFlipped(address indexed player, uint256 betAmount, bool betOnHeads, bool won);\r\n\r\n    constructor() {\r\n        owner = msg.sender;\r\n    }\r\n\r\n    // Ensure the contract has enough ether to pay out\r\n    modifier contractHasEnoughBalance(uint256 betAmount) {\r\n        require(address(this).balance >= betAmount * 2, \"Contract doesn't have enough balance.\");\r\n        _;\r\n    }\r\n\r\n    // Ensure the player is betting a positive amount\r\n    modifier validBet(uint256 betAmount) {\r\n        require(betAmount > 0, \"Bet amount must be greater than zero.\");\r\n        _;\r\n    }\r\n\r\n    function sendEtherToContract(uint256 amount) external payable{\r\n\r\n        \r\n    }\r\n\r\n\r\n\r\n    // The function to place a bet\r\n    function placeBet(bool betOnHeads) external payable validBet(msg.value) contractHasEnoughBalance(msg.value) {\r\n        // Generate a pseudo-random number (0 or 1)\r\n        bool coinFlipResult = random() == 1;\r\n\r\n        emit BetPlaced(msg.sender, msg.value, betOnHeads);\r\n\r\n        // Determine if the player won\r\n        if (coinFlipResult == betOnHeads) {\r\n            uint256 winnings = msg.value * 2;\r\n            payable(msg.sender).transfer(winnings);\r\n            emit CoinFlipped(msg.sender, msg.value, betOnHeads, true);\r\n        } else {\r\n            emit CoinFlipped(msg.sender, msg.value, betOnHeads, false);\r\n        }\r\n    }\r\n\r\n    // Function to generate a pseudo-random number (0 or 1)\r\n    function random() private view returns (uint8) {\r\n        // This is not secure, do not use in production!\r\n        return uint8(uint256(keccak256(abi.encodePacked(block.timestamp, block.difficulty, msg.sender))) % 2);\r\n    }\r\n\r\n    // Function to withdraw contract balance by the owner\r\n    function withdraw(uint256 amount) external {\r\n        require(msg.sender == owner, \"Only the owner can withdraw.\");\r\n        require(amount <= address(this).balance, \"Amount exceeds contract balance.\");\r\n        payable(owner).transfer(amount);\r\n    }\r\n\r\n    // Fallback function to receive ether\r\n    receive() external payable {}\r\n}\r\n",
  "sourcePath": "C:\\Users\\yugra\\Documents\\Web3\\CoinFlip\\contracts\\CoinFlip.sol",
  "compiler": {
    "name": "solc",
    "version": "0.8.0+commit.c7dfd78e.Emscripten.clang"
  },
  "schemaVersion": "3.4.16",
  "updatedAt": "2024-08-26T17:37:39.422Z",
  "networkType": "ethereum",
  "devdoc": {
    "kind": "dev",
    "methods": {},
    "version": 1
  },
  "userdoc": {
    "kind": "user",
    "methods": {},
    "version": 1
  }
}